{
  "contractName": "PoolMain2",
  "abi": [
    {
      "constant": true,
      "inputs": [],
      "name": "test1",
      "outputs": [
        {
          "name": "",
          "type": "uint256"
        }
      ],
      "payable": false,
      "stateMutability": "view",
      "type": "function"
    },
    {
      "constant": true,
      "inputs": [],
      "name": "test2",
      "outputs": [
        {
          "name": "",
          "type": "uint256"
        }
      ],
      "payable": false,
      "stateMutability": "pure",
      "type": "function"
    },
    {
      "constant": true,
      "inputs": [
        {
          "name": "a",
          "type": "uint256"
        },
        {
          "name": "b",
          "type": "uint256"
        },
        {
          "name": "c",
          "type": "uint256"
        },
        {
          "name": "d",
          "type": "uint256"
        },
        {
          "name": "e",
          "type": "uint256"
        },
        {
          "name": "f",
          "type": "uint256"
        }
      ],
      "name": "abc",
      "outputs": [
        {
          "name": "",
          "type": "uint256"
        }
      ],
      "payable": false,
      "stateMutability": "pure",
      "type": "function"
    },
    {
      "constant": false,
      "inputs": [
        {
          "name": "_wcGroupResults",
          "type": "uint256"
        },
        {
          "name": "a",
          "type": "uint256"
        },
        {
          "name": "b",
          "type": "uint256"
        },
        {
          "name": "c",
          "type": "uint256"
        },
        {
          "name": "d",
          "type": "uint256"
        },
        {
          "name": "e",
          "type": "uint256"
        },
        {
          "name": "f",
          "type": "uint256"
        }
      ],
      "name": "getResults",
      "outputs": [],
      "payable": false,
      "stateMutability": "nonpayable",
      "type": "function"
    },
    {
      "constant": false,
      "inputs": [
        {
          "name": "_groupResults",
          "type": "uint256"
        },
        {
          "name": "a",
          "type": "uint256"
        },
        {
          "name": "b",
          "type": "uint256"
        },
        {
          "name": "c",
          "type": "uint256"
        },
        {
          "name": "d",
          "type": "uint256"
        },
        {
          "name": "e",
          "type": "uint256"
        },
        {
          "name": "f",
          "type": "uint256"
        }
      ],
      "name": "getBet",
      "outputs": [],
      "payable": false,
      "stateMutability": "nonpayable",
      "type": "function"
    },
    {
      "constant": false,
      "inputs": [
        {
          "name": "_playerNumber",
          "type": "uint8"
        }
      ],
      "name": "compareBetGroup",
      "outputs": [],
      "payable": false,
      "stateMutability": "nonpayable",
      "type": "function"
    },
    {
      "constant": false,
      "inputs": [
        {
          "name": "_playerNumber",
          "type": "uint8"
        }
      ],
      "name": "compareBetAllElse",
      "outputs": [
        {
          "name": "",
          "type": "uint256"
        }
      ],
      "payable": false,
      "stateMutability": "nonpayable",
      "type": "function"
    },
    {
      "constant": true,
      "inputs": [
        {
          "name": "_playerNumber",
          "type": "uint8"
        }
      ],
      "name": "getPoppy",
      "outputs": [
        {
          "name": "",
          "type": "uint256"
        }
      ],
      "payable": false,
      "stateMutability": "view",
      "type": "function"
    }
  ],
  "bytecode": "0x60806040526000606960006101000a81548160ff021916908360ff16021790555073137f8b8162b37ef4fda718584b5f110ef5bb9885606a5534801561004457600080fd5b506107c9806100546000396000f30060806040526004361061008e576000357c0100000000000000000000000000000000000000000000000000000000900463ffffffff1680632a70da261461009357806366e41cb7146100fc5780636b59084d1461012757806378549aea14610152578063a61fd975146101bb578063a6f1251b146101ff578063c0f27bf814610272578063fe20016c146102b6575b600080fd5b34801561009f57600080fd5b506100fa600480360381019080803590602001909291908035906020019092919080359060200190929190803590602001909291908035906020019092919080359060200190929190803590602001909291905050506102e6565b005b34801561010857600080fd5b50610111610412565b6040518082815260200191505060405180910390f35b34801561013357600080fd5b5061013c610420565b6040518082815260200191505060405180910390f35b34801561015e57600080fd5b506101b960048036038101908080359060200190929190803590602001909291908035906020019092919080359060200190929190803590602001909291908035906020019092919080359060200190929190505050610433565b005b3480156101c757600080fd5b506101e9600480360381019080803560ff169060200190929190505050610457565b6040518082815260200191505060405180910390f35b34801561020b57600080fd5b5061025c6004803603810190808035906020019092919080359060200190929190803590602001909291908035906020019092919080359060200190929190803590602001909291905050506104a2565b6040518082815260200191505060405180910390f35b34801561027e57600080fd5b506102a0600480360381019080803560ff16906020019092919050505061051d565b6040518082815260200191505060405180910390f35b3480156102c257600080fd5b506102e4600480360381019080803560ff169060200190929190505050610661565b005b336000606960009054906101000a900460ff1660ff1660648110151561030857fe5b0160006101000a81548173ffffffffffffffffffffffffffffffffffffffff021916908373ffffffffffffffffffffffffffffffffffffffff16021790555086606460003373ffffffffffffffffffffffffffffffffffffffff1673ffffffffffffffffffffffffffffffffffffffff168152602001908152602001600020819055506103998686868686866104a2565b606560003373ffffffffffffffffffffffffffffffffffffffff1673ffffffffffffffffffffffffffffffffffffffff168152602001908152602001600020819055506001606960009054906101000a900460ff1601606960006101000a81548160ff021916908360ff16021790555050505050505050565b600080600a90508091505090565b600080606a54606a540190508091505090565b866067819055506104488686868686866104a2565b60688190555050505050505050565b600080606660008460ff1673ffffffffffffffffffffffffffffffffffffffff16815260200190815260200160002060009054906101000a900460ff1690508060ff16915050919050565b600080826509184e72a00085026a52b7d2dcc80cd2e400000087027002f050fe938943acc45f655680000000008902751aba4714957d300d0e549208b31adb100000000000008b027af316271c7fc3908a8bef464e3945ef7a25360a00000000000000008d0201010101019050809150509695505050505050565b600080600080600080600080600060685497507b69b33827bd86cd490e26594eebb5d46022a45f92afa9225e818143af96506000955060029450600093505b60228410156105cb576001840360640a8881151561057657fe5b068460640a8981151561058557fe5b060392506001840360640a8781151561059a57fe5b068460640a888115156105a957fe5b06039150818314156105be5784600102860195505b838060010194505061055c565b85606660008c60ff1673ffffffffffffffffffffffffffffffffffffffff16815260200190815260200160002060009054906101000a900460ff1601606660008c60ff1673ffffffffffffffffffffffffffffffffffffffff16815260200190815260200160002060006101000a81548160ff021916908360ff1602179055508560ff1690508098505050505050505050919050565b6000806000806000935060675460646000808860ff1660648110151561068357fe5b0160009054906101000a900473ffffffffffffffffffffffffffffffffffffffff1673ffffffffffffffffffffffffffffffffffffffff1673ffffffffffffffffffffffffffffffffffffffff16815260200190815260200160002054019250600191505b60218210156107515760018203600a0a60018303600a0a8481151561070957fe5b0683600a0a8581151561071857fe5b060381151561072357fe5b049050600160038281151561073457fe5b0414156107445783806001019450505b81806001019250506106e8565b83606660008760ff1673ffffffffffffffffffffffffffffffffffffffff16815260200190815260200160002060006101000a81548160ff021916908360ff16021790555050505050505600a165627a7a72305820d5c2223a3805fe4090a2691c74f39653fbd885a536eca10dcfc2c6bf622e17dd0029",
  "source": "pragma solidity^0.4.20;\n\ncontract PoolMain2 {\n\taddress[100] players;\n\tmapping(address => uint) groupResults;\n\tmapping(address => uint) playOffResults;\n\tmapping(address => uint8) playerPoints;\n\tuint wcGroupResults;\n\tuint wcPlayOffresults;\n\tuint8 counter = 0;\n\t//uint pg = 11001100110011001100110011001101 + 21212121212121212121212121212122;\n\tuint rrr = 111315171921232527293133353739411115192327313541;\n\t\n\tfunction test1() public view returns(uint) {\n\t    uint res = rrr + rrr;\n\t    return(res);\n\t}\n\tfunction test2() public pure returns(uint) {\n\t\tuint a = 10;\n\t\treturn(a);\n\t}\n    function abc(uint a, uint b, uint c, uint d, uint e, uint f) public pure returns(uint) { \n\t\tuint result = (a*(10**65)+b*(10**52)+c*(10**39)+d*(10**26)+e*(10**13)+f);\n\t\treturn(result);\n\t}\n\n\n    function getResults(uint _wcGroupResults, uint a, uint b, uint c, uint d, uint e, uint f) public {\n        wcGroupResults = _wcGroupResults;\n        wcPlayOffresults = abc(a,b,c,d,e,f);\n    }\n\tfunction getBet(uint _groupResults, uint a, uint b, uint c, uint d, uint e, uint f) public {\n\t\tplayers[counter] = msg.sender;\n\t\tgroupResults[msg.sender] = _groupResults;\n\t\tplayOffResults[msg.sender] = abc(a,b,c,d,e,f);\n\t\tcounter = counter + 1;\n\t}\n\n\tfunction compareBetGroup(uint8 _playerNumber)public {\n\t\t//for(uint8 i = 0; i<=counter; i++) {\n\t\t\tuint8 internCounter = 0;\n\t\t\tuint pg = groupResults[players[_playerNumber]] + wcGroupResults;\n\t\t\tfor(uint j=1; j<33; j++) {\n\t\t\t\tuint temp = (pg%(10**j)-pg%(10**(j-1)))/(10**(j-1));\n\t\t\t\tif(temp/3 == 1) {\n\t\t\t\t    internCounter++;\n\t\t\t\t}\n\t\t\t}\n\t\t\tplayerPoints[_playerNumber] = internCounter;\n\t\t//}\n\t}\n\tfunction compareBetAllElse(uint8 _playerNumber) public returns(uint){\n\t\tuint wp = wcPlayOffresults;\n\t\t//uint pp = playOffResults[_playerNumber];\n\t\tuint pp = 11131517192123252729313335373941111519232731354111192735112711193519;\n\t\t//uint wp = 11131517192123252729313335373941111519232731354111192735112711193519;\n\t\tuint8 internCounter = 0;\n\t\tuint8 multiplier = 2;\n\t\tfor(uint j=0; j<34; j++) {\n\t\t\tuint p = wp%(100**j) - wp%(100**(j-1));\n            uint q = pp%(100**j) - pp%(100**(j-1));\n            if(p == q) {\n\t\t\t\tinternCounter = internCounter + (1*multiplier);\n\t\t\t}\n\t\t}\n\t\tplayerPoints[_playerNumber] = playerPoints[_playerNumber] + internCounter;\n\t\tuint aa = internCounter;\n\t\treturn(aa);\n\t}\n\tfunction getPoppy(uint8 _playerNumber)public view returns(uint){\n\t    uint8 poppy = playerPoints[_playerNumber];\n\t    return(poppy);\n\t}\n\n}",
  "sourcePath": "/Users/feliz/Documents/projects/pool-truffle/contracts/PoolMain2.sol",
  "compiler": {
    "name": "solc",
    "version": "0.4.24+commit.e67f0147.Emscripten.clang"
  },
  "schemaVersion": "2.0.0",
  "updatedAt": "2018-07-11T15:52:02.372Z"
}