{
  "contractName": "PoolMain2",
  "abi": [
    {
      "constant": true,
      "inputs": [],
      "name": "test1",
      "outputs": [
        {
          "name": "",
          "type": "uint256"
        }
      ],
      "payable": false,
      "stateMutability": "view",
      "type": "function"
    },
    {
      "constant": true,
      "inputs": [],
      "name": "test2",
      "outputs": [
        {
          "name": "",
          "type": "uint256"
        }
      ],
      "payable": false,
      "stateMutability": "view",
      "type": "function"
    },
    {
      "constant": false,
      "inputs": [
        {
          "name": "_wcGroupResults",
          "type": "uint256"
        },
        {
          "name": "_wcPlayOffResults",
          "type": "uint256"
        }
      ],
      "name": "getResults",
      "outputs": [],
      "payable": false,
      "stateMutability": "nonpayable",
      "type": "function"
    },
    {
      "constant": false,
      "inputs": [
        {
          "name": "_groupResults",
          "type": "uint256"
        },
        {
          "name": "_playOffResults",
          "type": "uint256"
        }
      ],
      "name": "getBet",
      "outputs": [],
      "payable": false,
      "stateMutability": "nonpayable",
      "type": "function"
    },
    {
      "constant": false,
      "inputs": [
        {
          "name": "_playerNumber",
          "type": "uint8"
        }
      ],
      "name": "compareBetGroup",
      "outputs": [],
      "payable": false,
      "stateMutability": "nonpayable",
      "type": "function"
    },
    {
      "constant": false,
      "inputs": [
        {
          "name": "_playerNumber",
          "type": "uint8"
        }
      ],
      "name": "compareBetAllElse",
      "outputs": [],
      "payable": false,
      "stateMutability": "nonpayable",
      "type": "function"
    },
    {
      "constant": true,
      "inputs": [
        {
          "name": "_playerNumber",
          "type": "uint8"
        }
      ],
      "name": "getPoppy",
      "outputs": [
        {
          "name": "",
          "type": "uint256"
        }
      ],
      "payable": false,
      "stateMutability": "view",
      "type": "function"
    }
  ],
  "bytecode": "0x60806040526000606960006101000a81548160ff021916908360ff16021790555073137f8b8162b37ef4fda718584b5f110ef5bb9885606a5534801561004457600080fd5b50610625806100546000396000f300608060405260043610610083576000357c0100000000000000000000000000000000000000000000000000000000900463ffffffff1680632301b83d1461008857806366e41cb7146100bf5780636b59084d146100ea57806374a8a4b914610115578063a61fd9751461014c578063c0f27bf814610190578063fe20016c146101c0575b600080fd5b34801561009457600080fd5b506100bd60048036038101908080359060200190929190803590602001909291905050506101f0565b005b3480156100cb57600080fd5b506100d461030a565b6040518082815260200191505060405180910390f35b3480156100f657600080fd5b506100ff610318565b6040518082815260200191505060405180910390f35b34801561012157600080fd5b5061014a600480360381019080803590602001909291908035906020019092919050505061032b565b005b34801561015857600080fd5b5061017a600480360381019080803560ff16906020019092919050505061033d565b6040518082815260200191505060405180910390f35b34801561019c57600080fd5b506101be600480360381019080803560ff169060200190929190505050610388565b005b3480156101cc57600080fd5b506101ee600480360381019080803560ff1690602001909291905050506104bd565b005b336000606960009054906101000a900460ff1660ff1660648110151561021257fe5b0160006101000a81548173ffffffffffffffffffffffffffffffffffffffff021916908373ffffffffffffffffffffffffffffffffffffffff16021790555081606460003373ffffffffffffffffffffffffffffffffffffffff1673ffffffffffffffffffffffffffffffffffffffff1681526020019081526020016000208190555080606560003373ffffffffffffffffffffffffffffffffffffffff1673ffffffffffffffffffffffffffffffffffffffff168152602001908152602001600020819055506001606960009054906101000a900460ff1601606960006101000a81548160ff021916908360ff1602179055505050565b600080600a90508091505090565b600080606a54606a540190508091505090565b81606781905550806068819055505050565b600080606660008460ff1673ffffffffffffffffffffffffffffffffffffffff16815260200190815260200160002060009054906101000a900460ff1690508060ff16915050919050565b600080600080600080600060685496507b69b33827bd86cd490e26594eebb5d46022a45f92afa9225e818143af95506000945060029350600092505b6022831015610433576001830360640a878115156103de57fe5b068360640a888115156103ed57fe5b060391506001830360640a8681151561040257fe5b068360640a8781151561041157fe5b06039050808214156104265783600102850194505b82806001019350506103c4565b84606660008a60ff1673ffffffffffffffffffffffffffffffffffffffff16815260200190815260200160002060009054906101000a900460ff1601606660008a60ff1673ffffffffffffffffffffffffffffffffffffffff16815260200190815260200160002060006101000a81548160ff021916908360ff1602179055505050505050505050565b6000806000806000935060675460646000808860ff166064811015156104df57fe5b0160009054906101000a900473ffffffffffffffffffffffffffffffffffffffff1673ffffffffffffffffffffffffffffffffffffffff1673ffffffffffffffffffffffffffffffffffffffff16815260200190815260200160002054019250600191505b60218210156105ad5760018203600a0a60018303600a0a8481151561056557fe5b0683600a0a8581151561057457fe5b060381151561057f57fe5b049050600160038281151561059057fe5b0414156105a05783806001019450505b8180600101925050610544565b83606660008760ff1673ffffffffffffffffffffffffffffffffffffffff16815260200190815260200160002060006101000a81548160ff021916908360ff16021790555050505050505600a165627a7a72305820e5735b8bab84d2f3106682fe30418bb34f3405d1f67fe222d0ea0d7c389092650029",
  "source": "pragma solidity^0.4.20;\n\ncontract PoolMain2 {\n\taddress[100] players;\n\tmapping(address => uint) groupResults;\n\tmapping(address => uint) playOffResults;\n\tmapping(address => uint8) playerPoints;\n\tuint wcGroupResults;\n\tuint wcPlayOffresults;\n\tuint8 counter = 0;\n\t//uint pg = 11001100110011001100110011001101 + 21212121212121212121212121212122;\n\tuint rrr = 111315171921232527293133353739411115192327313541;\n\t\n\tfunction test1() public view returns(uint) {\n\t    uint res = rrr + rrr;\n\t    return(res);\n\t}\n\tfunction test2() public view returns(uint) {\n\t\tuint a = 10;\n\t\treturn(a);\n\t}\n    \n\n    function getResults(uint _wcGroupResults, uint _wcPlayOffResults) public {\n        wcGroupResults = _wcGroupResults;\n        wcPlayOffresults = _wcPlayOffResults;\n    }\n\tfunction getBet(uint _groupResults, uint _playOffResults) public {\n\t\tplayers[counter] = msg.sender;\n\t\tgroupResults[msg.sender] = _groupResults;\n\t\tplayOffResults[msg.sender] = _playOffResults;\n\t\tcounter = counter + 1;\n\t}\n\tfunction compareBetGroup(uint8 _playerNumber)public {\n\t\t//for(uint8 i = 0; i<=counter; i++) {\n\t\t\tuint8 internCounter = 0;\n\t\t\tuint pg = groupResults[players[_playerNumber]] + wcGroupResults;\n\t\t\tfor(uint j=1; j<33; j++) {\n\t\t\t\tuint temp = (pg%(10**j)-pg%(10**(j-1)))/(10**(j-1));\n\t\t\t\tif(temp/3 == 1) {\n\t\t\t\t    internCounter++;\n\t\t\t\t}\n\t\t\t}\n\t\t\tplayerPoints[_playerNumber] = internCounter;\n\t\t//}\n\t}\n\tfunction compareBetAllElse(uint8 _playerNumber) public {\n\t\tuint wp = wcPlayOffresults;\n\t\t//uint pp = playOffResults[_playerNumber];\n\t\tuint pp = 11131517192123252729313335373941111519232731354111192735112711193519;\n\t\tuint8 internCounter = 0;\n\t\tuint8 multiplier = 2;\n\t\tfor(uint j=0; j<34; j++) {\n\t\t\tuint p = wp%(100**j) - wp%(100**(j-1));\n            uint q = pp%(100**j) - pp%(100**(j-1));\n            if(p == q) {\n\t\t\t\tinternCounter = internCounter + (1*multiplier);\n\t\t\t}\n\t\t}\n\t\tplayerPoints[_playerNumber] = playerPoints[_playerNumber] + internCounter;\n\t}\n\tfunction getPoppy(uint8 _playerNumber)public view returns(uint){\n\t    uint8 poppy = playerPoints[_playerNumber];\n\t    return(poppy);\n\t}\n\n}",
  "sourcePath": "/Users/feliz/Documents/projects/pool-truffle/contracts/PoolMain2.sol",
  "compiler": {
    "name": "solc",
    "version": "0.4.24+commit.e67f0147.Emscripten.clang"
  },
  "schemaVersion": "2.0.0",
  "updatedAt": "2018-06-18T19:01:31.598Z"
}